8=FIX.4.4|9=77|35=A|34=1|49=Initiator|52=20200101-19:56:52.878|56=Acceptor|98=0|108=6|141=Y|10=241|8=FIX.4.4|9=108|35=V|34=2|49=Initiator|52=20200101-19:56:57.937|56=Acceptor|262=Test1|263=1|264=0|146=1|55=BBVA|267=1|269=2|10=195|8=FIX.4.4|9=60|35=0|34=3|49=Initiator|52=20200101-19:57:04.882|56=Acceptor|10=186|8=FIX.4.4|9=60|358=FIX.4.4|9=71|35=A|34=4|49=Initiator|52=20200101-19:57:11.431|568=FIX.4.4|9=60|35=0|34=5|49=Initiator|52=20200101-19:57:16.873|56=Acceptor|10=191|8=FIX.4.4|9=60|35=0|34=6|49=Initiator|52=20200101-19:57:22.873|56=Acceptor|108=FIX.4.4|9=71|35=A|34=6|49=Initiator|52=20200101-19:57:41.420|56=Acceptor|98=0|108=6|10=177|4.4|9=60|35=0|34=8|49=Initiator|52=20200101-19:57:34.874|56=Acceptor|10=195|8=FIX.4.4|9=60|35=0|34=9|49=Initiator|52=20200101-19:57:40.874|56=Acceptor|10=193|8=FIX.4.4|9=61|35=0|34=10|49=Initiator|52=20200101-19:57:46.872|56=Acceptor|10=238|8=FIX.4.4|9=61|35=0|34=11|49=Initiator|52=20200101-19:57:52.8=FIX.4.4|9=72|35=A|34=11|49=Initiator|52=20200101-19:58:09.005|56=Acceptor|98=0|108=6|10=226|ptor|10=244|8=FIX.4.4|9=61|35=0|34=13|49=Initiator|52=20200101-19:58:04.876|56=Acceptor|10=240|8=FIX.4.4|9=72|35=A|34=12|49=Initiator|52=20200101-19:58:39.004|56=Acceptor|98=0|108=6|10=229|=61|35=0|34=15|49=Initiator|52=20200101-19:58:16.874|56=Acceptor|10=243|8=FIX.4.4|9=61|35=0|34=16|49=Initiator|52=20200101-19:58:22.872|56=Acceptor|10=239|8=FIX.4.4|9=61|35=0|34=17|49=Initiator|52=20200101-19:58:28.872|56=Acceptor|10=246|8=FIX.4.4|9=61|35=0|34=18|49=Initiator|52=20200101-19:58:34.873|56=Acceptor|10=245|8=FIX.4.4|9=72|35=A|34=13|49=Initiator|52=20200101-19:59:09.005|56=Acceptor|98=0|108=6|10=229|=61|35=0|34=20|49=Initiator|52=20200101-19:58:46.872|56=Acceptor|10=240|8=FIX.4.4|9=61|35=0|34=21|49=Initiator|52=20200101-19:58:52.872|56=Acceptor|10=238|8=FIX.4.4|9=61|35=0|34=22|49=Initiator|52=20200101-19:58:58.8=FIX.4.4|9=72|35=A|34=22|49=Initiator|52=20200101-19:59:14.431|56=Acceptor|98=0|108=6|10=228|ptor|10=239|8=FIX.4.4|9=72|35=A|34=14|49=Initiator|52=20200101-19:59:39.004|56=Acceptor|98=0|108=FIX.4.4|9=72|35=A|34=23|49=Initiator|52=20200101-19:59:44.431|56=Acceptor|98=0|108=6|10=232|=61|35=0|34=26|49=Initiator|52=20200101-19:59:22.872|56=Acceptor|10=241|8=FIX.4.4|9=61|35=0|34=27|49=Initiator|52=20200101-19:59:28.872|56=Acceptor|10=248|8=FIX.4.4|9=61|35=0|34=28|49=Initiator|52=20200101-19:59:34.874|56=Acceptor|10=248|8=FIX.4.4|9=72|35=A|34=15|49=Initiator|52=20200101-20:00:09.004|56=Acceptor|98=0|108=FIX.4.4|9=72|35=A|34=24|49=Initiator|52=20200101-20:00:14.432|56=Acceptor|98=0|108=6|10=209|8=FIX.4.4|9=109|35=V|34=25|49=Initiator|52=20200101-19:59:56.680|56=Acce8=FIX.4.4|9=61|35=0|34=32|49=Initiator|52=20200101-19:59:59.8=FIX.4.4|9=72|35=A|34=26|49=Initiator|52=20200101-20:00:21.123|56=Acceptor|98=0|108=6|10=206|8=FIX.4.4|9=8=FIX.4.4|9=61|35=0|34=34|49=Initiator|52=20200101-20:00:12.874|56=Acceptor|10=219|8=FIX.4.4|9=61|35=0|34=35|49=Initiato8=FIX.4.4|9=72|35=A|34=25|49=Initiator|52=20208=FIX.4.4|9=72|35=A|34=27|49=Initiator|52=20200101-20:00:51.122|56=Acceptor|98=0|108=6|10=209|=61|35=0|34=37|49=Initiator|52=20200101-20:00:30.874|56=Acceptor|10=222|8=FIX.4.4|9=61|35=0|34=38|49=Initiator|52=20200101-20:00:36.874|56=Acceptor|10=229|8=FIX.4.4|9=61|35=0|34=39|49=Initiator|52=20200101-20:00:42.873|56=Acceptor|10=226|8=FIX.4.4|9=72|35=A|34=26|49=Initiator|52=20200101-20:01:14.431|56=Acceptor|98=0|108=FIX.4.4|9=72|35=A|34=28|49=Initiator|52=20200101-20:01:21.122|56=Acceptor|98=0|108=6|10=208|=61|35=0|34=42|49=Initiator|52=20200101-20:01:00.873|56=Acceptor|10=215|8=FIX.4.4|9=61|35=0|34=43|49=Initiator|52=20200101-20:01:06.873|56=Acceptor|10=222|8=FIX.4.4|9=61|35=0|34=44|49=Initiator|52=20200101-20:01:12.874|56=Acceptor|10=221|8=FIX.4.4|9=72|35=A|34=27|49=Initiator|52=20200101-20:01:44.431|56=Acceptor|98=0|108=FIX.4.4|9=72|35=A|34=29|49=Initiator|52=20200101-20:01:51.122|56=Acceptor|98=0|108=6|10=212|=61|35=0|34=47|49=Initiator|52=20200101-20:01:30.875|56=Acceptor|10=225|8=FIX.4.4|9=61|35=0|34=48|49=Initiator|52=20200101-20:01:36.874|56=Acceptor|10=231|8=FIX.4.4|9=61|35=0|34=49|49=Initiator|52=20200101-20:01:42.872|56=Acceptor|10=227|8=FIX.4.4|9=72|35=A|34=28|49=Initiator|52=20200101-20:02:14.430|56=Acceptor|98=0|108=FIX.4.4|9=72|35=A|34=30|49=Initiator|52=20200101-20:02:21.122|56=Acceptor|98=0|108=6|10=202|=61|35=0|34=52|49=Initiator|52=20200101-20:02:00.873|56=Acceptor|10=217|8=FIX.4.4|9=61|35=0|34=53|49=Initiator|52=20200101-20:02:06.873|56=Acceptor|10=224|8=FIX.4.4|9=61|35=0|34=54|49=Initiator|52=20200101-20:02:12.874|56=Acceptor|10=223|8=FIX.4.4|9=72|35=A|34=29|49=Initiator|52=20200101-20:02:45.430|56=Acceptor|98=0|108=FIX.4.4|9=72|35=A|34=31|49=Initiator|52=20200101-20:02:51.122|56=Acceptor|98=0|108=6|10=206|=61|35=0|34=57|49=Initiator|52=20200101-20:02:30.873|56=Acceptor|10=225|8=FIX.4.4|9=61|35=0|34=58|49=Initiator|52=20200101-20:02:36.872|56=Acceptor|10=231|8=FIX.4.4|9=61|35=0|34=59|49=Initiator|52=20200101-20:02:42.873|56=Acceptor|10=230|8=FIX.4.4|9=72|35=A|34=30|49=Initiator|52=20200101-20:03:15.430|56=Acceptor|98=0|108=FIX.4.4|9=72|35=A|34=32|49=Initiator|52=20200101-20:03:21.123|56=Acceptor|98=0|108=6|10=206|=61|35=0|34=62|49=Initiator|52=20200101-20:03:00.873|56=Acceptor|10=219|8=FIX.4.4|9=61|35=0|34=63|49=Initiator|52=20200101-20:03:06.873|56=Acceptor|10=226|8=FIX.4.4|9=61|35=0|34=64|49=Initiator|52=20200101-20:03:12.872|56=Acceptor|10=223|8=FIX.4.4|9=61|35=0|34=65|49=Initiator|52=20200101-20:03:18.873|56=Acceptor|10=231|8=FIX.4.4|9=72|35=A|34=33|49=Initiator|52=20200101-20:03:51.122|56=Acceptor|98=0|108=6|10=209|=61|35=0|34=67|49=Initiator|52=20200101-20:03:30.872|56=Acceptor|10=226|8=FIX.4.4|9=61|35=0|34=68|49=Initiator|52=20200101-20:03:36.873|56=Acceptor|10=234|8=FIX.4.4|9=61|35=0|34=69|49=Initiator|52=20200101-20:03:42.872|56=Acceptor|10=231|8=FIX.4.4|9=61|35=0|34=70|49=Initiator|52=20200101-20:03:48.874|56=Acceptor|10=231|8=FIX.4.4|9=61|35=0|34=71|49=Initiator|52=20200101-20:03:54.873|56=Acceptor|10=228|8=FIX.4.4|9=61|35=0|34=72|49=Initiator|52=20200101-20:04:00.873|56=Acceptor|10=221|8=FIX.4.4|9=61|35=0|34=73|49=Initiator|52=20200101-20:04:06.872|56=Acceptor|10=227|8=FIX.4.4|9=61|35=0|34=74|49=Initiator|52=20200101-20:04:12.873|56=Acceptor|10=226|8=FIX.4.4|9=61|35=0|34=75|49=Initiator|52=20200101-20:04:18.872|56=Acceptor|10=232|8=FIX.4.4|9=61|35=0|34=76|49=Initiator|52=20200101-20:04:24.872|56=Acceptor|10=230|8=FIX.4.4|9=61|35=0|34=77|49=Initiator|52=20200101-20:04:30.872|56=Acceptor|10=228|8=FIX.4.4|9=61|35=0|34=78|49=Initiator|52=20200101-20:04:36.874|56=Acceptor|10=237|8=FIX.4.4|9=61|35=0|34=79|49=Initiator|52=20200101-20:04:42.872|56=Acceptor|10=233|8=FIX.4.4|9=61|35=0|34=80|49=Initiator|52=20200101-20:04:48.872|56=Acceptor|10=231|8=FIX.4.4|9=61|35=0|34=81|49=Initiator|52=20200101-20:04:54.873|56=Acceptor|10=230|8=FIX.4.4|9=61|35=0|34=82|49=Initiator|52=20200101-20:05:00.873|56=Acceptor|10=223|8=FIX.4.4|9=61|35=0|34=83|49=Initiator|52=20200101-20:05:06.873|56=Acceptor|10=230|8=FIX.4.4|9=61|35=0|34=84|49=Initiator|52=20200101-20:05:12.874|56=Acceptor|10=229|8=FIX.4.4|9=61|35=0|34=85|49=Initiator|52=20200101-20:05:18.873|56=Acceptor|10=235|8=FIX.4.4|9=61|35=0|34=86|49=Initiator|52=20200101-20:05:24.873|56=Acceptor|10=233|8=FIX.4.4|9=61|35=0|34=87|49=Initiator|52=20200101-20:05:30.873|56=Acceptor|10=231|8=FIX.4.4|9=61|35=0|34=88|49=Initiator|52=20200101-20:05:36.872|56=Acceptor|10=237|8=FIX.4.4|9=61|35=0|34=89|49=Initiator|52=20200101-20:05:42.873|56=Acceptor|10=236|8=FIX.4.4|9=61|35=0|34=90|49=Initiator|52=20200101-20:05:48.874|56=Acceptor|10=235|8=FIX.4.4|9=61|35=0|34=91|49=Initiator|52=20200101-20:05:54.872|56=Acceptor|10=231|8=FIX.4.4|9=61|35=0|34=92|49=Initiator|52=20200101-20:06:00.873|56=Acceptor|10=225|8=FIX.4.4|9=61|35=0|34=93|49=Initiator|52=20200101-20:06:06.874|56=Acceptor|10=233|8=FIX.4.4|9=61|35=0|34=94|49=Initiator|52=20200101-20:06:12.873|56=Acceptor|10=230|8=FIX.4.4|9=61|35=0|34=95|49=Initiator|52=20200101-20:06:18.873|56=Acceptor|10=237|8=FIX.4.4|9=61|35=0|34=96|49=Initiator|52=20200101-20:06:24.874|56=Acceptor|10=236|8=FIX.4.4|9=61|35=0|34=97|49=Initiator|52=20200101-20:06:30.872|56=Acceptor|10=232|8=FIX.4.4|9=61|35=0|34=98|49=Initiator|52=20200101-20:06:36.872|56=Acceptor|10=239|8=FIX.4.4|9=61|35=0|34=99|49=Initiator|52=20200101-20:06:42.874|56=Acceptor|10=239|8=FIX.4.4|9=62|35=0|34=100|49=Initiator|52=20200101-20:06:48.874|56=Acceptor|10=021|8=FIX.4.4|9=62|35=0|34=101|49=Initiator|52=20200101-20:06:54.873|56=Acceptor|10=018|8=FIX.4.4|9=62|35=0|34=102|49=Initiator|52=20200101-20:07:00.873|56=Acceptor|10=011|8=FIX.4.4|9=62|35=0|34=103|49=Initiator|52=20200101-20:07:06.874|56=Acceptor|10=019|8=FIX.4.4|9=62|35=0|34=104|49=Initiator|52=20200101-20:07:12.874|56=Acceptor|10=017|8=FIX.4.4|9=62|35=0|34=105|49=Initiator|52=20200101-20:07:18.873|56=Acceptor|10=023|8=FIX.4.4|9=62|35=0|34=106|49=Initiator|52=20200101-20:07:24.873|56=Acceptor|10=021|