8=FIX.4.4|9=77|35=A|34=1|49=Initiator|52=20191228-01:31:15.829|56=Acceptor|98=0|108=6|141=Y|10=239|
8=FIX.4.4|9=77|35=A|34=1|49=Acceptor|52=20191228-01:31:15.913|56=Initiator|98=0|108=6|141=Y|10=233|
8=FIX.4.4|9=60|35=0|34=2|49=Acceptor|52=20191228-01:31:22.449|56=Initiator|10=186|
8=FIX.4.4|9=60|35=0|34=2|49=Initiator|52=20191228-01:31:22.454|56=Acceptor|10=182|
8=FIX.4.4|9=60|35=0|34=3|49=Acceptor|52=20191228-01:31:28.448|56=Initiator|10=192|
8=FIX.4.4|9=60|35=0|34=3|49=Initiator|52=20191228-01:31:28.453|56=Acceptor|10=188|
8=FIX.4.4|9=60|35=0|34=4|49=Acceptor|52=20191228-01:31:34.448|56=Initiator|10=190|
8=FIX.4.4|9=60|35=0|34=4|49=Initiator|52=20191228-01:31:34.454|56=Acceptor|10=187|
8=FIX.4.4|9=60|35=0|34=5|49=Acceptor|52=20191228-01:31:40.448|56=Initiator|10=188|
8=FIX.4.4|9=60|35=0|34=5|49=Initiator|52=20191228-01:31:40.453|56=Acceptor|10=184|
8=FIX.4.4|9=60|35=0|34=6|49=Acceptor|52=20191228-01:31:46.447|56=Initiator|10=194|
8=FIX.4.4|9=60|35=0|34=6|49=Initiator|52=20191228-01:31:46.452|56=Acceptor|10=190|
8=FIX.4.4|9=60|35=0|34=7|49=Acceptor|52=20191228-01:31:52.449|56=Initiator|10=194|
8=FIX.4.4|9=60|35=0|34=7|49=Initiator|52=20191228-01:31:52.458|56=Acceptor|10=194|
8=FIX.4.4|9=60|35=0|34=8|49=Acceptor|52=20191228-01:31:58.449|56=Initiator|10=201|
8=FIX.4.4|9=60|35=0|34=8|49=Initiator|52=20191228-01:31:58.461|56=Acceptor|10=195|
8=FIX.4.4|9=60|35=0|34=9|49=Acceptor|52=20191228-01:32:04.448|56=Initiator|10=193|
8=FIX.4.4|9=60|35=0|34=9|49=Initiator|52=20191228-01:32:04.452|56=Acceptor|10=188|
8=FIX.4.4|9=61|35=0|34=10|49=Acceptor|52=20191228-01:32:10.448|56=Initiator|10=231|
8=FIX.4.4|9=61|35=0|34=10|49=Initiator|52=20191228-01:32:10.455|56=Acceptor|10=229|
8=FIX.4.4|9=61|35=0|34=11|49=Acceptor|52=20191228-01:32:16.448|56=Initiator|10=238|
8=FIX.4.4|9=61|35=0|34=11|49=Initiator|52=20191228-01:32:16.460|56=Acceptor|10=232|
8=FIX.4.4|9=61|35=0|34=12|49=Acceptor|52=20191228-01:32:22.449|56=Initiator|10=237|
8=FIX.4.4|9=61|35=0|34=12|49=Initiator|52=20191228-01:32:22.459|56=Acceptor|10=238|
8=FIX.4.4|9=61|35=0|34=13|49=Acceptor|52=20191228-01:32:28.447|56=Initiator|10=242|
8=FIX.4.4|9=61|35=0|34=13|49=Initiator|52=20191228-01:32:28.453|56=Acceptor|10=239|
8=FIX.4.4|9=72|35=A|34=14|49=Initiator|52=20191228-01:37:12.198|56=Acceptor|98=0|108=6|10=243|
8=FIX.4.4|9=71|35=A|34=1|49=Acceptor|52=20191228-01:37:12.247|56=Initiator|98=0|108=6|10=185|
8=FIX.4.4|9=69|35=2|34=2|49=Acceptor|52=20191228-01:37:12.261|56=Initiator|7=1|16=0|10=061|
8=FIX.4.4|9=111|35=5|34=15|49=Initiator|52=20191228-01:37:12.274|56=Acceptor|58=MsgSeqNum too low, expecting 14 but received 1|10=235|
8=FIX.4.4|9=72|35=A|34=14|49=Initiator|52=20191228-01:37:14.020|56=Acceptor|98=0|108=6|10=229|
8=FIX.4.4|9=71|35=A|34=1|49=Acceptor|52=20191228-01:37:14.051|56=Initiator|98=0|108=6|10=180|
8=FIX.4.4|9=69|35=2|34=2|49=Acceptor|52=20191228-01:37:14.088|56=Initiator|7=1|16=0|10=070|
8=FIX.4.4|9=111|35=5|34=15|49=Initiator|52=20191228-01:37:14.141|56=Acceptor|58=MsgSeqNum too low, expecting 14 but received 1|10=230|
8=FIX.4.4|9=72|35=A|34=16|49=Initiator|52=20191228-01:37:42.153|56=Acceptor|98=0|108=6|10=239|
8=FIX.4.4|9=71|35=A|34=1|49=Acceptor|52=20191228-01:37:42.160|56=Initiator|98=0|108=6|10=182|
8=FIX.4.4|9=111|35=5|34=17|49=Initiator|52=20191228-01:37:42.169|56=Acceptor|58=MsgSeqNum too low, expecting 14 but received 1|10=243|
8=FIX.4.4|9=72|35=A|34=16|49=Initiator|52=20191228-01:37:43.979|56=Acceptor|98=0|108=6|10=000|
8=FIX.4.4|9=71|35=A|34=1|49=Acceptor|52=20191228-01:37:43.991|56=Initiator|98=0|108=6|10=195|
8=FIX.4.4|9=69|35=2|34=2|49=Acceptor|52=20191228-01:37:43.997|56=Initiator|7=1|16=0|10=081|
8=FIX.4.4|9=111|35=5|34=17|49=Initiator|52=20191228-01:37:44.004|56=Acceptor|58=MsgSeqNum too low, expecting 14 but received 1|10=233|
8=FIX.4.4|9=60|35=5|34=3|49=Acceptor|52=20191228-01:37:44.016|56=Initiator|10=192|
8=FIX.4.4|9=72|35=A|34=18|49=Initiator|52=20191228-01:38:12.151|56=Acceptor|98=0|108=6|10=237|
8=FIX.4.4|9=71|35=A|34=1|49=Acceptor|52=20191228-01:38:12.157|56=Initiator|98=0|108=6|10=186|
8=FIX.4.4|9=69|35=2|34=2|49=Acceptor|52=20191228-01:38:12.160|56=Initiator|7=1|16=0|10=060|
8=FIX.4.4|9=111|35=5|34=19|49=Initiator|52=20191228-01:38:12.161|56=Acceptor|58=MsgSeqNum too low, expecting 14 but received 1|10=235|
8=FIX.4.4|9=72|35=A|34=18|49=Initiator|52=20191228-01:38:13.984|56=Acceptor|98=0|108=6|10=252|
8=FIX.4.4|9=71|35=A|34=1|49=Acceptor|52=20191228-01:38:14.030|56=Initiator|98=0|108=6|10=178|
8=FIX.4.4|9=69|35=2|34=2|49=Acceptor|52=20191228-01:38:14.129|56=Initiator|7=1|16=0|10=067|
8=FIX.4.4|9=111|35=5|34=19|49=Initiator|52=20191228-01:38:14.261|56=Acceptor|58=MsgSeqNum too low, expecting 14 but received 1|10=238|
8=FIX.4.4|9=72|35=A|34=20|49=Initiator|52=20191228-01:38:42.152|56=Acceptor|98=0|108=6|10=234|
8=FIX.4.4|9=71|35=A|34=1|49=Acceptor|52=20191228-01:38:42.161|56=Initiator|98=0|108=6|10=184|
8=FIX.4.4|9=69|35=2|34=2|49=Acceptor|52=20191228-01:38:42.171|56=Initiator|7=1|16=0|10=065|
8=FIX.4.4|9=111|35=5|34=21|49=Initiator|52=20191228-01:38:42.179|56=Acceptor|58=MsgSeqNum too low, expecting 14 but received 1|10=240|
8=FIX.4.4|9=72|35=A|34=20|49=Initiator|52=20191228-01:38:43.973|56=Acceptor|98=0|108=6|10=246|
8=FIX.4.4|9=71|35=A|34=1|49=Acceptor|52=20191228-01:38:43.980|56=Initiator|98=0|108=6|10=194|
8=FIX.4.4|9=69|35=2|34=2|49=Acceptor|52=20191228-01:38:43.998|56=Initiator|7=1|16=0|10=083|
8=FIX.4.4|9=111|35=5|34=21|49=Initiator|52=20191228-01:38:44.009|56=Acceptor|58=MsgSeqNum too low, expecting 14 but received 1|10=234|
8=FIX.4.4|9=72|35=A|34=22|49=Initiator|52=20191228-01:39:12.152|56=Acceptor|98=0|108=6|10=234|
8=FIX.4.4|9=71|35=A|34=1|49=Acceptor|52=20191228-01:39:12.158|56=Initiator|98=0|108=6|10=188|
8=FIX.4.4|9=69|35=2|34=2|49=Acceptor|52=20191228-01:39:12.162|56=Initiator|7=1|16=0|10=063|
8=FIX.4.4|9=111|35=5|34=23|49=Initiator|52=20191228-01:39:12.167|56=Acceptor|58=MsgSeqNum too low, expecting 14 but received 1|10=237|
8=FIX.4.4|9=72|35=A|34=22|49=Initiator|52=20191228-01:39:13.972|56=Acceptor|98=0|108=6|10=245|
8=FIX.4.4|9=71|35=A|34=1|49=Acceptor|52=20191228-01:39:13.980|56=Initiator|98=0|108=6|10=192|
8=FIX.4.4|9=69|35=2|34=2|49=Acceptor|52=20191228-01:39:13.990|56=Initiator|7=1|16=0|10=073|
8=FIX.4.4|9=111|35=5|34=23|49=Initiator|52=20191228-01:39:14.017|56=Acceptor|58=MsgSeqNum too low, expecting 14 but received 1|10=233|
8=FIX.4.4|9=72|35=A|34=24|49=Initiator|52=20191228-01:39:42.151|56=Acceptor|98=0|108=6|10=238|
8=FIX.4.4|9=71|35=A|34=1|49=Acceptor|52=20191228-01:39:42.156|56=Initiator|98=0|108=6|10=189|
8=FIX.4.4|9=111|35=5|34=25|49=Initiator|52=20191228-01:39:42.161|56=Acceptor|58=MsgSeqNum too low, expecting 14 but received 1|10=236|
8=FIX.4.4|9=69|35=2|34=2|49=Acceptor|52=20191228-01:39:42.161|56=Initiator|7=1|16=0|10=065|
8=FIX.4.4|9=77|35=A|34=1|49=Initiator|52=20191228-01:40:34.915|56=Acceptor|98=0|108=6|141=Y|10=236|
8=FIX.4.4|9=77|35=A|34=1|49=Acceptor|52=20191228-01:40:35.061|56=Initiator|98=0|108=6|141=Y|10=229|
8=FIX.4.4|9=60|35=0|34=2|49=Acceptor|52=20191228-01:40:41.325|56=Initiator|10=180|
8=FIX.4.4|9=60|35=0|34=2|49=Initiator|52=20191228-01:40:41.336|56=Acceptor|10=182|
8=FIX.4.4|9=60|35=0|34=3|49=Acceptor|52=20191228-01:40:47.322|56=Initiator|10=184|
8=FIX.4.4|9=60|35=0|34=3|49=Initiator|52=20191228-01:40:47.330|56=Acceptor|10=183|
8=FIX.4.4|9=60|35=0|34=4|49=Acceptor|52=20191228-01:40:53.321|56=Initiator|10=181|
8=FIX.4.4|9=60|35=0|34=4|49=Initiator|52=20191228-01:40:53.325|56=Acceptor|10=185|
8=FIX.4.4|9=60|35=0|34=5|49=Acceptor|52=20191228-01:40:59.322|56=Initiator|10=189|
8=FIX.4.4|9=60|35=0|34=5|49=Initiator|52=20191228-01:40:59.327|56=Acceptor|10=194|
8=FIX.4.4|9=60|35=0|34=6|49=Acceptor|52=20191228-01:41:05.321|56=Initiator|10=181|
8=FIX.4.4|9=60|35=0|34=6|49=Initiator|52=20191228-01:41:05.328|56=Acceptor|10=188|
8=FIX.4.4|9=60|35=0|34=7|49=Acceptor|52=20191228-01:41:11.324|56=Initiator|10=182|
8=FIX.4.4|9=60|35=0|34=7|49=Initiator|52=20191228-01:41:11.332|56=Acceptor|10=181|
8=FIX.4.4|9=60|35=0|34=8|49=Acceptor|52=20191228-01:41:17.321|56=Initiator|10=186|
8=FIX.4.4|9=60|35=0|34=8|49=Initiator|52=20191228-01:41:17.329|56=Acceptor|10=194|
8=FIX.4.4|9=60|35=0|34=9|49=Acceptor|52=20191228-01:41:23.323|56=Initiator|10=186|
8=FIX.4.4|9=60|35=0|34=9|49=Initiator|52=20191228-01:41:23.331|56=Acceptor|10=185|
8=FIX.4.4|9=61|35=0|34=10|49=Acceptor|52=20191228-01:41:29.322|56=Initiator|10=232|
8=FIX.4.4|9=61|35=0|34=10|49=Initiator|52=20191228-01:41:29.329|56=Acceptor|10=239|
8=FIX.4.4|9=61|35=0|34=11|49=Acceptor|52=20191228-01:41:35.323|56=Initiator|10=231|
8=FIX.4.4|9=61|35=0|34=11|49=Initiator|52=20191228-01:41:35.331|56=Acceptor|10=230|
8=FIX.4.4|9=61|35=0|34=12|49=Acceptor|52=20191228-01:41:41.321|56=Initiator|10=227|
8=FIX.4.4|9=61|35=0|34=12|49=Initiator|52=20191228-01:41:41.326|56=Acceptor|10=232|
8=FIX.4.4|9=61|35=0|34=13|49=Acceptor|52=20191228-01:41:47.323|56=Initiator|10=236|
8=FIX.4.4|9=61|35=0|34=13|49=Initiator|52=20191228-01:41:47.330|56=Acceptor|10=234|
8=FIX.4.4|9=61|35=0|34=14|49=Acceptor|52=20191228-01:41:53.322|56=Initiator|10=233|
8=FIX.4.4|9=61|35=0|34=14|49=Initiator|52=20191228-01:41:53.327|56=Acceptor|10=238|
8=FIX.4.4|9=61|35=0|34=15|49=Acceptor|52=20191228-01:41:59.323|56=Initiator|10=241|
8=FIX.4.4|9=61|35=0|34=15|49=Initiator|52=20191228-01:41:59.330|56=Acceptor|10=239|
8=FIX.4.4|9=61|35=0|34=16|49=Acceptor|52=20191228-01:42:05.322|56=Initiator|10=233|
8=FIX.4.4|9=61|35=0|34=16|49=Initiator|52=20191228-01:42:05.327|56=Acceptor|10=238|
8=FIX.4.4|9=61|35=0|34=17|49=Acceptor|52=20191228-01:42:11.322|56=Initiator|10=231|
8=FIX.4.4|9=61|35=0|34=17|49=Initiator|52=20191228-01:42:11.329|56=Acceptor|10=238|
8=FIX.4.4|9=61|35=0|34=18|49=Acceptor|52=20191228-01:42:17.322|56=Initiator|10=238|
8=FIX.4.4|9=61|35=0|34=18|49=Initiator|52=20191228-01:42:17.329|56=Acceptor|10=245|
8=FIX.4.4|9=61|35=0|34=19|49=Acceptor|52=20191228-01:42:23.321|56=Initiator|10=235|
8=FIX.4.4|9=61|35=0|34=19|49=Initiator|52=20191228-01:42:23.325|56=Acceptor|10=239|
8=FIX.4.4|9=61|35=0|34=20|49=Acceptor|52=20191228-01:42:29.321|56=Initiator|10=233|
8=FIX.4.4|9=61|35=0|34=20|49=Initiator|52=20191228-01:42:29.325|56=Acceptor|10=237|
8=FIX.4.4|9=61|35=0|34=21|49=Acceptor|52=20191228-01:42:35.322|56=Initiator|10=232|
8=FIX.4.4|9=61|35=0|34=21|49=Initiator|52=20191228-01:42:35.329|56=Acceptor|10=239|
8=FIX.4.4|9=61|35=0|34=22|49=Acceptor|52=20191228-01:42:41.323|56=Initiator|10=231|
8=FIX.4.4|9=61|35=0|34=22|49=Initiator|52=20191228-01:42:41.328|56=Acceptor|10=236|
8=FIX.4.4|9=61|35=0|34=23|49=Acceptor|52=20191228-01:42:47.323|56=Initiator|10=238|
8=FIX.4.4|9=61|35=0|34=23|49=Initiator|52=20191228-01:42:47.329|56=Acceptor|10=244|
8=FIX.4.4|9=61|35=0|34=24|49=Acceptor|52=20191228-01:42:53.323|56=Initiator|10=236|
8=FIX.4.4|9=61|35=0|34=24|49=Initiator|52=20191228-01:42:53.328|56=Acceptor|10=241|
8=FIX.4.4|9=61|35=0|34=25|49=Acceptor|52=20191228-01:42:59.322|56=Initiator|10=242|
8=FIX.4.4|9=61|35=0|34=25|49=Initiator|52=20191228-01:42:59.328|56=Acceptor|10=248|
8=FIX.4.4|9=61|35=0|34=26|49=Acceptor|52=20191228-01:43:05.322|56=Initiator|10=235|
8=FIX.4.4|9=61|35=0|34=26|49=Initiator|52=20191228-01:43:05.330|56=Acceptor|10=234|
8=FIX.4.4|9=61|35=0|34=27|49=Acceptor|52=20191228-01:43:11.322|56=Initiator|10=233|
8=FIX.4.4|9=61|35=0|34=27|49=Initiator|52=20191228-01:43:11.328|56=Acceptor|10=239|
8=FIX.4.4|9=61|35=0|34=28|49=Acceptor|52=20191228-01:43:17.323|56=Initiator|10=241|
8=FIX.4.4|9=61|35=0|34=28|49=Initiator|52=20191228-01:43:17.331|56=Acceptor|10=240|
8=FIX.4.4|9=61|35=0|34=29|49=Acceptor|52=20191228-01:43:23.321|56=Initiator|10=237|
8=FIX.4.4|9=61|35=0|34=29|49=Initiator|52=20191228-01:43:23.325|56=Acceptor|10=241|
8=FIX.4.4|9=61|35=0|34=30|49=Acceptor|52=20191228-01:43:29.323|56=Initiator|10=237|
8=FIX.4.4|9=61|35=0|34=30|49=Initiator|52=20191228-01:43:29.328|56=Acceptor|10=242|
8=FIX.4.4|9=61|35=0|34=31|49=Acceptor|52=20191228-01:43:35.322|56=Initiator|10=234|
8=FIX.4.4|9=61|35=0|34=31|49=Initiator|52=20191228-01:43:35.325|56=Acceptor|10=237|
8=FIX.4.4|9=61|35=0|34=32|49=Acceptor|52=20191228-01:43:41.323|56=Initiator|10=233|
8=FIX.4.4|9=61|35=0|34=32|49=Initiator|52=20191228-01:43:41.328|56=Acceptor|10=238|
8=FIX.4.4|9=61|35=0|34=33|49=Acceptor|52=20191228-01:43:47.324|56=Initiator|10=241|
8=FIX.4.4|9=61|35=0|34=33|49=Initiator|52=20191228-01:43:47.327|56=Acceptor|10=244|
8=FIX.4.4|9=61|35=0|34=34|49=Acceptor|52=20191228-01:43:53.322|56=Initiator|10=237|
8=FIX.4.4|9=61|35=0|34=34|49=Initiator|52=20191228-01:43:53.327|56=Acceptor|10=242|
8=FIX.4.4|9=61|35=0|34=35|49=Acceptor|52=20191228-01:43:59.321|56=Initiator|10=243|
8=FIX.4.4|9=61|35=0|34=35|49=Initiator|52=20191228-01:43:59.328|56=Acceptor|10=250|
8=FIX.4.4|9=61|35=0|34=36|49=Acceptor|52=20191228-01:44:05.323|56=Initiator|10=238|
8=FIX.4.4|9=61|35=0|34=36|49=Initiator|52=20191228-01:44:05.329|56=Acceptor|10=244|
8=FIX.4.4|9=61|35=0|34=37|49=Acceptor|52=20191228-01:44:11.321|56=Initiator|10=234|
8=FIX.4.4|9=61|35=0|34=37|49=Initiator|52=20191228-01:44:11.329|56=Acceptor|10=242|
8=FIX.4.4|9=61|35=0|34=38|49=Acceptor|52=20191228-01:44:17.323|56=Initiator|10=243|
8=FIX.4.4|9=61|35=0|34=38|49=Initiator|52=20191228-01:44:17.347|56=Acceptor|10=249|
8=FIX.4.4|9=61|35=0|34=39|49=Acceptor|52=20191228-01:44:23.322|56=Initiator|10=240|
8=FIX.4.4|9=61|35=0|34=39|49=Initiator|52=20191228-01:44:23.855|56=Acceptor|10=251|
8=FIX.4.4|9=61|35=0|34=40|49=Acceptor|52=20191228-01:44:29.322|56=Initiator|10=238|
8=FIX.4.4|9=61|35=0|34=40|49=Initiator|52=20191228-01:44:29.856|56=Acceptor|10=250|
8=FIX.4.4|9=61|35=0|34=41|49=Acceptor|52=20191228-01:44:35.322|56=Initiator|10=236|
8=FIX.4.4|9=61|35=0|34=41|49=Initiator|52=20191228-01:44:35.857|56=Acceptor|10=249|
8=FIX.4.4|9=61|35=0|34=42|49=Acceptor|52=20191228-01:44:41.321|56=Initiator|10=233|
8=FIX.4.4|9=61|35=0|34=42|49=Initiator|52=20191228-01:44:41.855|56=Acceptor|10=245|
8=FIX.4.4|9=61|35=0|34=43|49=Acceptor|52=20191228-01:44:47.328|56=Initiator|10=247|
8=FIX.4.4|9=61|35=0|34=43|49=Initiator|52=20191228-01:44:47.857|56=Acceptor|10=254|
8=FIX.4.4|9=61|35=0|34=44|49=Acceptor|52=20191228-01:44:53.322|56=Initiator|10=239|
8=FIX.4.4|9=61|35=0|34=44|49=Initiator|52=20191228-01:44:53.856|56=Acceptor|10=251|
8=FIX.4.4|9=61|35=0|34=45|49=Acceptor|52=20191228-01:44:59.321|56=Initiator|10=245|
8=FIX.4.4|9=61|35=0|34=45|49=Initiator|52=20191228-01:44:59.855|56=Acceptor|10=001|
8=FIX.4.4|9=61|35=0|34=46|49=Acceptor|52=20191228-01:45:05.321|56=Initiator|10=238|
8=FIX.4.4|9=61|35=0|34=46|49=Initiator|52=20191228-01:45:05.856|56=Acceptor|10=251|
8=FIX.4.4|9=61|35=0|34=47|49=Acceptor|52=20191228-01:45:11.322|56=Initiator|10=237|
8=FIX.4.4|9=61|35=0|34=47|49=Initiator|52=20191228-01:45:11.856|56=Acceptor|10=249|
8=FIX.4.4|9=61|35=0|34=48|49=Acceptor|52=20191228-01:45:17.323|56=Initiator|10=245|
8=FIX.4.4|9=61|35=0|34=48|49=Initiator|52=20191228-01:45:17.856|56=Acceptor|10=000|
8=FIX.4.4|9=61|35=0|34=49|49=Acceptor|52=20191228-01:45:23.323|56=Initiator|10=243|
8=FIX.4.4|9=61|35=0|34=49|49=Initiator|52=20191228-01:45:23.856|56=Acceptor|10=254|
8=FIX.4.4|9=61|35=0|34=50|49=Acceptor|52=20191228-01:45:29.323|56=Initiator|10=241|
8=FIX.4.4|9=61|35=0|34=50|49=Initiator|52=20191228-01:45:29.856|56=Acceptor|10=252|
8=FIX.4.4|9=61|35=0|34=51|49=Acceptor|52=20191228-01:45:35.322|56=Initiator|10=238|
8=FIX.4.4|9=61|35=0|34=51|49=Initiator|52=20191228-01:45:35.855|56=Acceptor|10=249|
8=FIX.4.4|9=61|35=0|34=52|49=Acceptor|52=20191228-01:45:41.323|56=Initiator|10=237|
8=FIX.4.4|9=61|35=0|34=52|49=Initiator|52=20191228-01:45:41.857|56=Acceptor|10=249|
8=FIX.4.4|9=61|35=0|34=53|49=Acceptor|52=20191228-01:45:47.322|56=Initiator|10=243|
8=FIX.4.4|9=61|35=0|34=53|49=Initiator|52=20191228-01:45:47.857|56=Acceptor|10=000|
8=FIX.4.4|9=61|35=0|34=54|49=Acceptor|52=20191228-01:45:53.323|56=Initiator|10=242|
8=FIX.4.4|9=61|35=0|34=54|49=Initiator|52=20191228-01:45:53.856|56=Acceptor|10=253|
8=FIX.4.4|9=61|35=0|34=55|49=Acceptor|52=20191228-01:45:59.322|56=Initiator|10=248|
8=FIX.4.4|9=61|35=0|34=55|49=Initiator|52=20191228-01:45:59.856|56=Acceptor|10=004|
8=FIX.4.4|9=61|35=0|34=56|49=Acceptor|52=20191228-01:46:05.322|56=Initiator|10=241|
8=FIX.4.4|9=61|35=0|34=56|49=Initiator|52=20191228-01:46:05.856|56=Acceptor|10=253|
8=FIX.4.4|9=61|35=0|34=57|49=Acceptor|52=20191228-01:46:11.322|56=Initiator|10=239|
8=FIX.4.4|9=61|35=0|34=57|49=Initiator|52=20191228-01:46:11.856|56=Acceptor|10=251|
8=FIX.4.4|9=61|35=0|34=58|49=Acceptor|52=20191228-01:46:17.323|56=Initiator|10=247|
8=FIX.4.4|9=61|35=0|34=58|49=Initiator|52=20191228-01:46:17.856|56=Acceptor|10=002|
8=FIX.4.4|9=61|35=0|34=59|49=Acceptor|52=20191228-01:46:23.321|56=Initiator|10=243|
8=FIX.4.4|9=61|35=0|34=59|49=Initiator|52=20191228-01:46:23.856|56=Acceptor|10=000|
8=FIX.4.4|9=61|35=0|34=60|49=Acceptor|52=20191228-01:46:29.323|56=Initiator|10=243|
8=FIX.4.4|9=61|35=0|34=60|49=Initiator|52=20191228-01:46:29.856|56=Acceptor|10=254|
8=FIX.4.4|9=61|35=0|34=61|49=Acceptor|52=20191228-01:46:35.332|56=Initiator|10=241|
8=FIX.4.4|9=61|35=0|34=61|49=Initiator|52=20191228-01:46:35.856|56=Acceptor|10=252|
8=FIX.4.4|9=61|35=0|34=62|49=Initiator|52=20191228-01:46:41.857|56=Acceptor|10=251|
8=FIX.4.4|9=61|35=0|34=62|49=Acceptor|52=20191228-01:46:41.861|56=Initiator|10=246|
8=FIX.4.4|9=61|35=0|34=63|49=Initiator|52=20191228-01:46:47.855|56=Acceptor|10=000|
8=FIX.4.4|9=61|35=0|34=63|49=Acceptor|52=20191228-01:46:47.863|56=Initiator|10=255|
8=FIX.4.4|9=61|35=0|34=64|49=Initiator|52=20191228-01:46:53.857|56=Acceptor|10=000|
8=FIX.4.4|9=61|35=0|34=64|49=Acceptor|52=20191228-01:46:53.864|56=Initiator|10=254|
8=FIX.4.4|9=61|35=0|34=65|49=Initiator|52=20191228-01:46:59.856|56=Acceptor|10=006|
8=FIX.4.4|9=61|35=0|34=65|49=Acceptor|52=20191228-01:46:59.861|56=Initiator|10=002|
8=FIX.4.4|9=61|35=0|34=66|49=Initiator|52=20191228-01:47:05.856|56=Acceptor|10=255|
8=FIX.4.4|9=61|35=0|34=66|49=Acceptor|52=20191228-01:47:05.866|56=Initiator|10=000|
8=FIX.4.4|9=61|35=0|34=67|49=Initiator|52=20191228-01:47:11.855|56=Acceptor|10=252|
8=FIX.4.4|9=61|35=0|34=67|49=Acceptor|52=20191228-01:47:11.858|56=Initiator|10=255|
8=FIX.4.4|9=77|35=A|34=1|49=Initiator|52=20191228-01:56:47.372|56=Acceptor|98=0|108=6|141=Y|10=244|
8=FIX.4.4|9=77|35=A|34=1|49=Acceptor|52=20191228-01:56:47.466|56=Initiator|98=0|108=6|141=Y|10=248|
8=FIX.4.4|9=60|35=0|34=2|49=Acceptor|52=20191228-01:56:54.298|56=Initiator|10=200|
8=FIX.4.4|9=60|35=0|34=2|49=Initiator|52=20191228-01:56:54.302|56=Acceptor|10=186|
8=FIX.4.4|9=60|35=0|34=3|49=Acceptor|52=20191228-01:57:00.297|56=Initiator|10=192|
8=FIX.4.4|9=60|35=0|34=3|49=Initiator|52=20191228-01:57:00.305|56=Acceptor|10=182|
8=FIX.4.4|9=60|35=0|34=4|49=Acceptor|52=20191228-01:57:06.297|56=Initiator|10=199|
8=FIX.4.4|9=60|35=0|34=4|49=Initiator|52=20191228-01:57:06.316|56=Acceptor|10=191|
8=FIX.4.4|9=60|35=0|34=5|49=Acceptor|52=20191228-01:57:12.296|56=Initiator|10=196|
8=FIX.4.4|9=60|35=0|34=5|49=Initiator|52=20191228-01:57:12.325|56=Acceptor|10=189|
8=FIX.4.4|9=60|35=0|34=6|49=Acceptor|52=20191228-01:57:18.296|56=Initiator|10=203|
8=FIX.4.4|9=60|35=0|34=6|49=Initiator|52=20191228-01:57:18.324|56=Acceptor|10=195|
8=FIX.4.4|9=60|35=0|34=7|49=Acceptor|52=20191228-01:57:24.297|56=Initiator|10=202|
8=FIX.4.4|9=60|35=0|34=7|49=Initiator|52=20191228-01:57:24.324|56=Acceptor|10=193|
8=FIX.4.4|9=60|35=0|34=8|49=Acceptor|52=20191228-01:57:30.297|56=Initiator|10=200|
8=FIX.4.4|9=60|35=0|34=8|49=Initiator|52=20191228-01:57:30.325|56=Acceptor|10=192|
8=FIX.4.4|9=60|35=0|34=9|49=Acceptor|52=20191228-01:57:36.296|56=Initiator|10=206|
8=FIX.4.4|9=60|35=0|34=9|49=Initiator|52=20191228-01:57:36.334|56=Acceptor|10=199|
8=FIX.4.4|9=61|35=0|34=10|49=Acceptor|52=20191228-01:57:42.297|56=Initiator|10=245|
8=FIX.4.4|9=61|35=0|34=10|49=Initiator|52=20191228-01:57:42.325|56=Acceptor|10=237|
8=FIX.4.4|9=61|35=0|34=11|49=Acceptor|52=20191228-01:57:48.297|56=Initiator|10=252|
8=FIX.4.4|9=61|35=0|34=11|49=Initiator|52=20191228-01:57:48.326|56=Acceptor|10=245|
8=FIX.4.4|9=61|35=0|34=12|49=Acceptor|52=20191228-01:57:54.297|56=Initiator|10=250|
8=FIX.4.4|9=61|35=0|34=12|49=Initiator|52=20191228-01:57:54.325|56=Acceptor|10=242|
8=FIX.4.4|9=61|35=0|34=13|49=Acceptor|52=20191228-01:58:00.297|56=Initiator|10=243|
8=FIX.4.4|9=61|35=0|34=13|49=Initiator|52=20191228-01:58:00.324|56=Acceptor|10=234|
8=FIX.4.4|9=61|35=0|34=14|49=Acceptor|52=20191228-01:58:06.296|56=Initiator|10=249|
8=FIX.4.4|9=61|35=0|34=14|49=Initiator|52=20191228-01:58:06.324|56=Acceptor|10=241|
8=FIX.4.4|9=61|35=0|34=15|49=Acceptor|52=20191228-01:58:12.296|56=Initiator|10=247|
8=FIX.4.4|9=61|35=0|34=15|49=Initiator|52=20191228-01:58:12.325|56=Acceptor|10=240|
8=FIX.4.4|9=61|35=0|34=16|49=Acceptor|52=20191228-01:58:18.296|56=Initiator|10=254|
8=FIX.4.4|9=61|35=0|34=16|49=Initiator|52=20191228-01:58:18.324|56=Acceptor|10=246|
8=FIX.4.4|9=61|35=0|34=17|49=Acceptor|52=20191228-01:58:24.297|56=Initiator|10=253|
8=FIX.4.4|9=61|35=0|34=17|49=Initiator|52=20191228-01:58:24.324|56=Acceptor|10=244|
8=FIX.4.4|9=61|35=0|34=18|49=Acceptor|52=20191228-01:58:30.297|56=Initiator|10=251|
8=FIX.4.4|9=61|35=0|34=18|49=Initiator|52=20191228-01:58:30.325|56=Acceptor|10=243|
8=FIX.4.4|9=61|35=0|34=19|49=Acceptor|52=20191228-01:58:36.296|56=Initiator|10=001|
8=FIX.4.4|9=61|35=0|34=19|49=Initiator|52=20191228-01:58:36.323|56=Acceptor|10=248|
8=FIX.4.4|9=72|35=A|34=20|49=Initiator|52=20191228-02:02:41.475|56=Acceptor|98=0|108=6|10=233|
8=FIX.4.4|9=71|35=A|34=1|49=Acceptor|52=20191228-02:02:41.527|56=Initiator|98=0|108=6|10=181|
8=FIX.4.4|9=69|35=2|34=2|49=Acceptor|52=20191228-02:02:41.540|56=Initiator|7=1|16=0|10=056|
8=FIX.4.4|9=111|35=5|34=21|49=Initiator|52=20191228-02:02:41.549|56=Acceptor|58=MsgSeqNum too low, expecting 20 but received 1|10=229|
8=FIX.4.4|9=77|35=A|34=1|49=Initiator|52=20191228-02:03:11.439|56=Acceptor|98=0|108=6|141=Y|10=232|
8=FIX.4.4|9=77|35=A|34=1|49=Acceptor|52=20191228-02:03:11.485|56=Initiator|98=0|108=6|141=Y|10=233|
8=FIX.4.4|9=60|35=0|34=2|49=Initiator|52=20191228-02:03:17.441|56=Acceptor|10=182|
8=FIX.4.4|9=60|35=0|34=2|49=Acceptor|52=20191228-02:03:17.737|56=Initiator|10=190|
8=FIX.4.4|9=60|35=0|34=3|49=Initiator|52=20191228-02:03:23.439|56=Acceptor|10=187|
8=FIX.4.4|9=60|35=0|34=3|49=Acceptor|52=20191228-02:03:23.739|56=Initiator|10=190|
8=FIX.4.4|9=71|35=A|34=4|49=Initiator|52=20191228-02:03:43.618|56=Acceptor|98=0|108=6|10=188|
8=FIX.4.4|9=71|35=A|34=1|49=Acceptor|52=20191228-02:03:43.632|56=Initiator|98=0|108=6|10=181|
8=FIX.4.4|9=69|35=2|34=2|49=Acceptor|52=20191228-02:03:43.635|56=Initiator|7=1|16=0|10=064|
8=FIX.4.4|9=109|35=5|34=5|49=Initiator|52=20191228-02:03:43.647|56=Acceptor|58=MsgSeqNum too low, expecting 4 but received 1|10=146|
8=FIX.4.4|9=77|35=A|34=1|49=Initiator|52=20191228-02:04:13.573|56=Acceptor|98=0|108=6|141=Y|10=234|
8=FIX.4.4|9=77|35=A|34=1|49=Acceptor|52=20191228-02:04:13.613|56=Initiator|98=0|108=6|141=Y|10=229|
8=FIX.4.4|9=60|35=0|34=2|49=Initiator|52=20191228-02:04:19.585|56=Acceptor|10=194|
8=FIX.4.4|9=60|35=0|34=2|49=Acceptor|52=20191228-02:04:19.737|56=Initiator|10=193|
8=FIX.4.4|9=60|35=0|34=3|49=Acceptor|52=20191228-02:04:25.739|56=Initiator|10=193|
8=FIX.4.4|9=60|35=0|34=3|49=Initiator|52=20191228-02:04:25.753|56=Acceptor|10=189|
8=FIX.4.4|9=60|35=0|34=4|49=Acceptor|52=20191228-02:04:31.736|56=Initiator|10=188|
8=FIX.4.4|9=60|35=0|34=4|49=Initiator|52=20191228-02:04:32.572|56=Acceptor|10=187|
8=FIX.4.4|9=77|35=A|34=1|49=Initiator|52=20191228-02:06:54.325|56=Acceptor|98=0|108=6|141=Y|10=236|
8=FIX.4.4|9=77|35=A|34=1|49=Acceptor|52=20191228-02:06:54.401|56=Initiator|98=0|108=6|141=Y|10=231|
8=FIX.4.4|9=60|35=0|34=2|49=Acceptor|52=20191228-02:07:00.648|56=Initiator|10=187|
8=FIX.4.4|9=60|35=0|34=2|49=Initiator|52=20191228-02:07:00.659|56=Acceptor|10=189|
8=FIX.4.4|9=60|35=0|34=3|49=Acceptor|52=20191228-02:07:06.645|56=Initiator|10=191|
8=FIX.4.4|9=60|35=0|34=3|49=Initiator|52=20191228-02:07:06.654|56=Acceptor|10=191|
8=FIX.4.4|9=60|35=0|34=4|49=Acceptor|52=20191228-02:07:12.648|56=Initiator|10=192|
8=FIX.4.4|9=60|35=0|34=4|49=Initiator|52=20191228-02:07:12.656|56=Acceptor|10=191|
8=FIX.4.4|9=60|35=0|34=5|49=Acceptor|52=20191228-02:07:18.645|56=Initiator|10=196|
8=FIX.4.4|9=60|35=0|34=5|49=Initiator|52=20191228-02:07:18.649|56=Acceptor|10=200|
8=FIX.4.4|9=60|35=0|34=6|49=Acceptor|52=20191228-02:07:24.646|56=Initiator|10=195|
8=FIX.4.4|9=60|35=0|34=6|49=Initiator|52=20191228-02:07:24.654|56=Acceptor|10=194|
8=FIX.4.4|9=60|35=0|34=7|49=Acceptor|52=20191228-02:07:30.645|56=Initiator|10=192|
8=FIX.4.4|9=60|35=0|34=7|49=Initiator|52=20191228-02:07:30.667|56=Acceptor|10=196|
8=FIX.4.4|9=60|35=0|34=8|49=Acceptor|52=20191228-02:07:36.668|56=Initiator|10=204|
8=FIX.4.4|9=60|35=0|34=8|49=Initiator|52=20191228-02:07:36.674|56=Acceptor|10=201|
8=FIX.4.4|9=60|35=0|34=9|49=Initiator|52=20191228-02:07:43.322|56=Acceptor|10=190|
8=FIX.4.4|9=60|35=0|34=9|49=Acceptor|52=20191228-02:07:43.333|56=Initiator|10=192|
8=FIX.4.4|9=61|35=0|34=10|49=Acceptor|52=20191228-02:07:49.646|56=Initiator|10=246|
8=FIX.4.4|9=61|35=0|34=10|49=Initiator|52=20191228-02:07:49.652|56=Acceptor|10=243|
8=FIX.4.4|9=72|35=A|34=11|49=Initiator|52=20191228-02:08:17.859|56=Acceptor|98=0|108=6|10=248|
8=FIX.4.4|9=71|35=A|34=1|49=Acceptor|52=20191228-02:08:17.876|56=Initiator|98=0|108=6|10=197|
8=FIX.4.4|9=69|35=2|34=2|49=Acceptor|52=20191228-02:08:17.897|56=Initiator|7=1|16=0|10=080|
8=FIX.4.4|9=111|35=5|34=12|49=Initiator|52=20191228-02:08:17.902|56=Acceptor|58=MsgSeqNum too low, expecting 11 but received 1|10=231|
8=FIX.4.4|9=77|35=A|34=1|49=Initiator|52=20191228-02:08:47.816|56=Acceptor|98=0|108=6|141=Y|10=245|
8=FIX.4.4|9=77|35=A|34=1|49=Acceptor|52=20191228-02:08:47.857|56=Initiator|98=0|108=6|141=Y|10=250|
8=FIX.4.4|9=60|35=0|34=2|49=Initiator|52=20191228-02:08:53.815|56=Acceptor|10=192|
8=FIX.4.4|9=60|35=0|34=2|49=Acceptor|52=20191228-02:08:54.647|56=Initiator|10=196|
8=FIX.4.4|9=71|35=A|34=3|49=Initiator|52=20191228-02:13:52.610|56=Acceptor|98=0|108=6|10=180|
8=FIX.4.4|9=71|35=A|34=1|49=Acceptor|52=20191228-02:13:52.677|56=Initiator|98=0|108=6|10=191|
8=FIX.4.4|9=69|35=2|34=2|49=Acceptor|52=20191228-02:13:52.693|56=Initiator|7=1|16=0|10=069|
8=FIX.4.4|9=109|35=5|34=4|49=Initiator|52=20191228-02:13:52.704|56=Acceptor|58=MsgSeqNum too low, expecting 3 but received 1|10=139|
8=FIX.4.4|9=77|35=A|34=1|49=Initiator|52=20191228-02:14:22.566|56=Acceptor|98=0|108=6|141=Y|10=237|
8=FIX.4.4|9=77|35=A|34=1|49=Acceptor|52=20191228-02:14:22.617|56=Initiator|98=0|108=6|141=Y|10=234|
8=FIX.4.4|9=60|35=0|34=2|49=Initiator|52=20191228-02:14:28.568|56=Acceptor|10=196|
8=FIX.4.4|9=60|35=0|34=2|49=Acceptor|52=20191228-02:14:28.665|56=Initiator|10=194|
8=FIX.4.4|9=60|35=0|34=3|49=Initiator|52=20191228-02:14:34.572|56=Acceptor|10=189|
8=FIX.4.4|9=60|35=0|34=3|49=Acceptor|52=20191228-02:14:34.666|56=Initiator|10=193|
8=FIX.4.4|9=60|35=0|34=4|49=Initiator|52=20191228-02:14:40.567|56=Acceptor|10=191|
8=FIX.4.4|9=60|35=0|34=4|49=Acceptor|52=20191228-02:14:40.665|56=Initiator|10=190|
8=FIX.4.4|9=60|35=0|34=5|49=Initiator|52=20191228-02:14:46.567|56=Acceptor|10=198|
8=FIX.4.4|9=60|35=0|34=5|49=Acceptor|52=20191228-02:14:46.666|56=Initiator|10=198|
8=FIX.4.4|9=71|35=A|34=6|49=Initiator|52=20191228-02:16:11.834|56=Acceptor|98=0|108=6|10=189|
8=FIX.4.4|9=71|35=A|34=1|49=Acceptor|52=20191228-02:16:11.860|56=Initiator|98=0|108=6|10=183|
8=FIX.4.4|9=69|35=2|34=2|49=Acceptor|52=20191228-02:16:11.867|56=Initiator|7=1|16=0|10=070|
8=FIX.4.4|9=109|35=5|34=7|49=Initiator|52=20191228-02:16:11.883|56=Acceptor|58=MsgSeqNum too low, expecting 6 but received 1|10=151|
8=FIX.4.4|9=60|35=5|34=3|49=Acceptor|52=20191228-02:16:11.889|56=Initiator|10=202|
8=FIX.4.4|9=77|35=A|34=1|49=Initiator|52=20191228-02:16:41.802|56=Acceptor|98=0|108=6|141=Y|10=233|
8=FIX.4.4|9=77|35=A|34=1|49=Acceptor|52=20191228-02:16:41.842|56=Initiator|98=0|108=6|141=Y|10=237|
8=FIX.4.4|9=60|35=0|34=2|49=Initiator|52=20191228-02:16:47.807|56=Acceptor|10=195|
8=FIX.4.4|9=60|35=0|34=2|49=Acceptor|52=20191228-02:16:48.665|56=Initiator|10=198|
8=FIX.4.4|9=60|35=0|34=3|49=Initiator|52=20191228-02:16:53.804|56=Acceptor|10=190|
8=FIX.4.4|9=60|35=0|34=3|49=Acceptor|52=20191228-02:16:54.666|56=Initiator|10=197|
8=FIX.4.4|9=60|35=0|34=4|49=Initiator|52=20191228-02:16:59.802|56=Acceptor|10=195|
8=FIX.4.4|9=60|35=0|34=4|49=Acceptor|52=20191228-02:17:00.666|56=Initiator|10=190|
8=FIX.4.4|9=60|35=0|34=5|49=Initiator|52=20191228-02:17:05.802|56=Acceptor|10=188|
8=FIX.4.4|9=60|35=0|34=5|49=Acceptor|52=20191228-02:17:06.666|56=Initiator|10=197|
8=FIX.4.4|9=77|35=A|34=1|49=Initiator|52=20200101-19:56:52.878|56=Acceptor|98=0|108=6|141=Y|10=241|
8=FIX.4.4|9=77|35=A|34=1|49=Acceptor|52=20200101-19:56:52.963|56=Initiator|98=0|108=6|141=Y|10=236|
8=FIX.4.4|9=108|35=V|34=2|49=Initiator|52=20200101-19:56:57.937|56=Acceptor|262=Test1|263=1|264=0|146=1|55=BBVA|267=1|269=2|10=195|
8=FIX.4.4|9=104|35=X|34=2|49=Acceptor|52=20200101-19:56:59.029|56=Initiator|262=Test1|268=1|279=0|269=2|55=BBVA|270=1.1|10=021|
8=FIX.4.4|9=104|35=X|34=3|49=Acceptor|52=20200101-19:57:00.961|56=Initiator|262=Test1|268=1|279=0|269=2|55=BBVA|270=1.3|10=016|
8=FIX.4.4|9=104|35=X|34=4|49=Acceptor|52=20200101-19:57:02.960|56=Initiator|262=Test1|268=1|279=0|269=2|55=BBVA|270=1.5|10=020|
8=FIX.4.4|9=77|35=A|34=3|49=Initiator|52=20200101-19:57:04.345|56=Acceptor|98=0|108=6|141=Y|10=230|
8=FIX.4.4|9=60|35=0|34=3|49=Initiator|52=20200101-19:57:04.882|56=Acceptor|10=186|
8=FIX.4.4|9=105|35=X|34=5|49=Acceptor|52=20200101-19:57:04.973|56=Initiator|262=Test1|268=1|279=0|269=2|55=BBVA|270=10.1|10=072|
8=FIX.4.4|9=105|35=X|34=6|49=Acceptor|52=20200101-19:57:07.961|56=Initiator|262=Test1|268=1|279=0|269=2|55=BBVA|270=10.2|10=074|
8=FIX.4.4|9=60|35=0|34=4|49=Initiator|52=20200101-19:57:10.874|56=Acceptor|10=185|
8=FIX.4.4|9=71|35=A|34=4|49=Initiator|52=20200101-19:57:11.431|56=Acceptor|98=0|108=6|10=174|
8=FIX.4.4|9=105|35=X|34=7|49=Acceptor|52=20200101-19:57:12.962|56=Initiator|262=Test1|268=1|279=0|269=2|55=BBVA|270=10.3|10=073|
8=FIX.4.4|9=60|35=0|34=5|49=Initiator|52=20200101-19:57:16.873|56=Acceptor|10=191|
8=FIX.4.4|9=60|35=0|34=8|49=Acceptor|52=20200101-19:57:19.878|56=Initiator|10=202|
8=FIX.4.4|9=60|35=0|34=6|49=Initiator|52=20200101-19:57:22.873|56=Acceptor|10=189|
8=FIX.4.4|9=60|35=0|34=9|49=Acceptor|52=20200101-19:57:25.879|56=Initiator|10=201|
8=FIX.4.4|9=60|35=0|34=7|49=Initiator|52=20200101-19:57:28.872|56=Acceptor|10=195|
8=FIX.4.4|9=61|35=0|34=10|49=Acceptor|52=20200101-19:57:31.878|56=Initiator|10=238|
8=FIX.4.4|9=60|35=0|34=8|49=Initiator|52=20200101-19:57:34.874|56=Acceptor|10=195|
8=FIX.4.4|9=61|35=0|34=11|49=Acceptor|52=20200101-19:57:37.887|56=Initiator|10=245|
8=FIX.4.4|9=71|35=A|34=9|49=Initiator|52=20200101-19:57:39.019|56=Acceptor|98=0|108=6|10=191|
8=FIX.4.4|9=60|35=0|34=9|49=Initiator|52=20200101-19:57:40.874|56=Acceptor|10=193|
8=FIX.4.4|9=71|35=A|34=6|49=Initiator|52=20200101-19:57:41.420|56=Acceptor|98=0|108=6|10=177|
8=FIX.4.4|9=61|35=0|34=12|49=Acceptor|52=20200101-19:57:43.879|56=Initiator|10=244|
8=FIX.4.4|9=61|35=0|34=10|49=Initiator|52=20200101-19:57:46.872|56=Acceptor|10=238|
8=FIX.4.4|9=61|35=0|34=13|49=Acceptor|52=20200101-19:57:49.878|56=Initiator|10=250|
8=FIX.4.4|9=61|35=0|34=11|49=Initiator|52=20200101-19:57:52.872|56=Acceptor|10=236|
8=FIX.4.4|9=106|35=X|34=14|49=Acceptor|52=20200101-19:57:52.960|56=Initiator|262=Test1|268=1|279=0|269=2|55=BBVA|270=10.5|10=124|
8=FIX.4.4|9=104|35=X|34=15|49=Acceptor|52=20200101-19:57:57.962|56=Initiator|262=Test1|268=1|279=0|269=2|55=BBVA|270=11|10=032|
8=FIX.4.4|9=61|35=0|34=12|49=Initiator|52=20200101-19:57:58.873|56=Acceptor|10=244|
8=FIX.4.4|9=61|35=0|34=13|49=Initiator|52=20200101-19:58:04.876|56=Acceptor|10=240|
8=FIX.4.4|9=61|35=0|34=16|49=Acceptor|52=20200101-19:58:04.887|56=Initiator|10=245|
8=FIX.4.4|9=72|35=A|34=11|49=Initiator|52=20200101-19:58:09.005|56=Acceptor|98=0|108=6|10=226|
8=FIX.4.4|9=61|35=0|34=14|49=Initiator|52=20200101-19:58:10.872|56=Acceptor|10=234|
8=FIX.4.4|9=61|35=0|34=17|49=Acceptor|52=20200101-19:58:10.879|56=Initiator|10=244|
8=FIX.4.4|9=61|35=0|34=15|49=Initiator|52=20200101-19:58:16.874|56=Acceptor|10=243|
8=FIX.4.4|9=61|35=0|34=18|49=Acceptor|52=20200101-19:58:16.879|56=Initiator|10=251|
8=FIX.4.4|9=61|35=0|34=16|49=Initiator|52=20200101-19:58:22.872|56=Acceptor|10=239|
8=FIX.4.4|9=61|35=0|34=19|49=Acceptor|52=20200101-19:58:22.883|56=Initiator|10=244|
8=FIX.4.4|9=61|35=0|34=17|49=Initiator|52=20200101-19:58:28.872|56=Acceptor|10=246|
8=FIX.4.4|9=61|35=0|34=20|49=Acceptor|52=20200101-19:58:28.880|56=Initiator|10=239|
8=FIX.4.4|9=61|35=0|34=18|49=Initiator|52=20200101-19:58:34.873|56=Acceptor|10=245|
8=FIX.4.4|9=61|35=0|34=21|49=Acceptor|52=20200101-19:58:34.879|56=Initiator|10=245|
8=FIX.4.4|9=72|35=A|34=12|49=Initiator|52=20200101-19:58:39.004|56=Acceptor|98=0|108=6|10=229|
8=FIX.4.4|9=61|35=0|34=19|49=Initiator|52=20200101-19:58:40.872|56=Acceptor|10=242|
8=FIX.4.4|9=61|35=0|34=22|49=Acceptor|52=20200101-19:58:40.881|56=Initiator|10=236|
8=FIX.4.4|9=72|35=A|34=20|49=Initiator|52=20200101-19:58:44.437|56=Acceptor|98=0|108=6|10=234|
8=FIX.4.4|9=61|35=0|34=20|49=Initiator|52=20200101-19:58:46.872|56=Acceptor|10=240|
8=FIX.4.4|9=61|35=0|34=23|49=Acceptor|52=20200101-19:58:46.889|56=Initiator|10=251|
8=FIX.4.4|9=61|35=0|34=21|49=Initiator|52=20200101-19:58:52.872|56=Acceptor|10=238|
8=FIX.4.4|9=61|35=0|34=24|49=Acceptor|52=20200101-19:58:52.885|56=Initiator|10=245|
8=FIX.4.4|9=61|35=0|34=22|49=Initiator|52=20200101-19:58:58.872|56=Acceptor|10=245|
8=FIX.4.4|9=61|35=0|34=25|49=Acceptor|52=20200101-19:58:58.882|56=Initiator|10=249|
8=FIX.4.4|9=61|35=0|34=23|49=Initiator|52=20200101-19:59:04.873|56=Acceptor|10=239|
8=FIX.4.4|9=61|35=0|34=26|49=Acceptor|52=20200101-19:59:04.877|56=Initiator|10=246|
8=FIX.4.4|9=72|35=A|34=13|49=Initiator|52=20200101-19:59:09.005|56=Acceptor|98=0|108=6|10=229|
8=FIX.4.4|9=61|35=0|34=24|49=Initiator|52=20200101-19:59:10.872|56=Acceptor|10=236|
8=FIX.4.4|9=61|35=0|34=27|49=Acceptor|52=20200101-19:59:10.877|56=Initiator|10=244|
8=FIX.4.4|9=72|35=A|34=22|49=Initiator|52=20200101-19:59:14.431|56=Acceptor|98=0|108=6|10=228|
8=FIX.4.4|9=61|35=0|34=25|49=Initiator|52=20200101-19:59:16.872|56=Acceptor|10=243|
8=FIX.4.4|9=61|35=0|34=28|49=Acceptor|52=20200101-19:59:16.878|56=Initiator|10=252|
8=FIX.4.4|9=61|35=0|34=29|49=Acceptor|52=20200101-19:59:16.890|56=Initiator|10=247|
8=FIX.4.4|9=61|35=0|34=26|49=Initiator|52=20200101-19:59:22.872|56=Acceptor|10=241|
8=FIX.4.4|9=61|35=0|34=30|49=Acceptor|52=20200101-19:59:22.881|56=Initiator|10=236|
8=FIX.4.4|9=61|35=0|34=27|49=Initiator|52=20200101-19:59:28.872|56=Acceptor|10=248|
8=FIX.4.4|9=61|35=0|34=31|49=Acceptor|52=20200101-19:59:28.876|56=Initiator|10=247|
8=FIX.4.4|9=61|35=0|34=28|49=Initiator|52=20200101-19:59:34.874|56=Acceptor|10=248|
8=FIX.4.4|9=61|35=0|34=32|49=Acceptor|52=20200101-19:59:34.880|56=Initiator|10=240|
8=FIX.4.4|9=72|35=A|34=14|49=Initiator|52=20200101-19:59:39.004|56=Acceptor|98=0|108=6|10=232|
8=FIX.4.4|9=61|35=0|34=29|49=Initiator|52=20200101-19:59:40.873|56=Acceptor|10=245|
8=FIX.4.4|9=61|35=0|34=33|49=Acceptor|52=20200101-19:59:40.878|56=Initiator|10=245|
8=FIX.4.4|9=72|35=A|34=23|49=Initiator|52=20200101-19:59:44.431|56=Acceptor|98=0|108=6|10=232|
8=FIX.4.4|9=61|35=0|34=30|49=Initiator|52=20200101-19:59:46.910|56=Acceptor|10=235|
8=FIX.4.4|9=61|35=0|34=34|49=Acceptor|52=20200101-19:59:46.927|56=Initiator|10=247|
8=FIX.4.4|9=72|35=A|34=24|49=Initiator|52=20200101-19:59:51.154|56=Acceptor|98=0|108=6|10=233|
8=FIX.4.4|9=61|35=0|34=31|49=Initiator|52=20200101-19:59:53.881|56=Acceptor|10=241|
8=FIX.4.4|9=61|35=0|34=35|49=Acceptor|52=20200101-19:59:53.890|56=Initiator|10=245|
8=FIX.4.4|9=61|35=0|34=32|49=Initiator|52=20200101-19:59:59.886|56=Acceptor|10=253|
8=FIX.4.4|9=61|35=0|34=36|49=Acceptor|52=20200101-19:59:59.920|56=Initiator|10=246|
8=FIX.4.4|9=72|35=A|34=26|49=Initiator|52=20200101-20:00:03.132|56=Acceptor|98=0|108=6|10=206|
8=FIX.4.4|9=61|35=0|34=33|49=Initiator|52=20200101-20:00:06.874|56=Acceptor|10=221|
8=FIX.4.4|9=61|35=0|34=37|49=Acceptor|52=20200101-20:00:06.878|56=Initiator|10=229|
8=FIX.4.4|9=72|35=A|34=15|49=Initiator|52=20200101-20:00:09.004|56=Acceptor|98=0|108=6|10=208|
8=FIX.4.4|9=61|35=0|34=34|49=Initiator|52=20200101-20:00:12.874|56=Acceptor|10=219|
8=FIX.4.4|9=61|35=0|34=38|49=Acceptor|52=20200101-20:00:12.882|56=Initiator|10=222|
8=FIX.4.4|9=72|35=A|34=24|49=Initiator|52=20200101-20:00:14.432|56=Acceptor|98=0|108=6|10=209|
8=FIX.4.4|9=61|35=0|34=35|49=Initiator|52=20200101-20:00:18.873|56=Acceptor|10=225|
8=FIX.4.4|9=61|35=0|34=39|49=Acceptor|52=20200101-20:00:18.877|56=Initiator|10=233|
8=FIX.4.4|9=72|35=A|34=26|49=Initiator|52=20200101-20:00:21.123|56=Acceptor|98=0|108=6|10=206|
8=FIX.4.4|9=61|35=0|34=36|49=Initiator|52=20200101-20:00:24.874|56=Acceptor|10=224|
8=FIX.4.4|9=61|35=0|34=40|49=Acceptor|52=20200101-20:00:24.878|56=Initiator|10=223|
8=FIX.4.4|9=61|35=0|34=37|49=Initiator|52=20200101-20:00:30.874|56=Acceptor|10=222|
8=FIX.4.4|9=61|35=0|34=41|49=Acceptor|52=20200101-20:00:30.882|56=Initiator|10=216|
8=FIX.4.4|9=72|35=A|34=28|49=Initiator|52=20200101-20:00:33.126|56=Acceptor|98=0|108=6|10=214|
8=FIX.4.4|9=61|35=0|34=38|49=Initiator|52=20200101-20:00:36.874|56=Acceptor|10=229|
8=FIX.4.4|9=61|35=0|34=42|49=Acceptor|52=20200101-20:00:36.890|56=Initiator|10=222|
8=FIX.4.4|9=61|35=0|34=39|49=Initiator|52=20200101-20:00:42.873|56=Acceptor|10=226|
8=FIX.4.4|9=61|35=0|34=43|49=Acceptor|52=20200101-20:00:42.881|56=Initiator|10=220|
8=FIX.4.4|9=72|35=A|34=25|49=Initiator|52=20200101-20:00:44.431|56=Acceptor|98=0|108=6|10=212|
8=FIX.4.4|9=61|35=0|34=40|49=Initiator|52=20200101-20:00:48.872|56=Acceptor|10=223|
8=FIX.4.4|9=61|35=0|34=44|49=Acceptor|52=20200101-20:00:48.898|56=Initiator|10=235|
8=FIX.4.4|9=72|35=A|34=27|49=Initiator|52=20200101-20:00:51.122|56=Acceptor|98=0|108=6|10=209|
8=FIX.4.4|9=61|35=0|34=41|49=Initiator|52=20200101-20:00:54.874|56=Acceptor|10=223|
8=FIX.4.4|9=61|35=0|34=45|49=Acceptor|52=20200101-20:00:55.878|56=Initiator|10=232|
8=FIX.4.4|9=61|35=0|34=42|49=Initiator|52=20200101-20:01:00.873|56=Acceptor|10=215|
8=FIX.4.4|9=61|35=0|34=46|49=Acceptor|52=20200101-20:01:01.879|56=Initiator|10=226|
8=FIX.4.4|9=61|35=0|34=43|49=Initiator|52=20200101-20:01:06.873|56=Acceptor|10=222|
8=FIX.4.4|9=61|35=0|34=47|49=Acceptor|52=20200101-20:01:07.879|56=Initiator|10=233|
8=FIX.4.4|9=61|35=0|34=44|49=Initiator|52=20200101-20:01:12.874|56=Acceptor|10=221|
8=FIX.4.4|9=61|35=0|34=48|49=Acceptor|52=20200101-20:01:13.880|56=Initiator|10=223|
8=FIX.4.4|9=72|35=A|34=26|49=Initiator|52=20200101-20:01:14.431|56=Acceptor|98=0|108=6|10=211|
8=FIX.4.4|9=61|35=0|34=45|49=Initiator|52=20200101-20:01:18.873|56=Acceptor|10=227|
8=FIX.4.4|9=61|35=0|34=49|49=Acceptor|52=20200101-20:01:19.878|56=Initiator|10=237|
8=FIX.4.4|9=72|35=A|34=28|49=Initiator|52=20200101-20:01:21.122|56=Acceptor|98=0|108=6|10=208|
8=FIX.4.4|9=61|35=0|34=46|49=Initiator|52=20200101-20:01:24.874|56=Acceptor|10=226|
8=FIX.4.4|9=61|35=0|34=50|49=Acceptor|52=20200101-20:01:25.879|56=Initiator|10=227|
8=FIX.4.4|9=61|35=0|34=47|49=Initiator|52=20200101-20:01:30.875|56=Acceptor|10=225|
8=FIX.4.4|9=61|35=0|34=51|49=Acceptor|52=20200101-20:01:31.879|56=Initiator|10=225|
8=FIX.4.4|9=61|35=0|34=48|49=Initiator|52=20200101-20:01:36.874|56=Acceptor|10=231|
8=FIX.4.4|9=61|35=0|34=52|49=Acceptor|52=20200101-20:01:37.879|56=Initiator|10=232|
8=FIX.4.4|9=61|35=0|34=49|49=Initiator|52=20200101-20:01:42.872|56=Acceptor|10=227|
8=FIX.4.4|9=61|35=0|34=53|49=Acceptor|52=20200101-20:01:43.879|56=Initiator|10=230|
8=FIX.4.4|9=72|35=A|34=27|49=Initiator|52=20200101-20:01:44.431|56=Acceptor|98=0|108=6|10=215|
8=FIX.4.4|9=61|35=0|34=50|49=Initiator|52=20200101-20:01:48.873|56=Acceptor|10=226|
8=FIX.4.4|9=61|35=0|34=54|49=Acceptor|52=20200101-20:01:49.883|56=Initiator|10=232|
8=FIX.4.4|9=72|35=A|34=29|49=Initiator|52=20200101-20:01:51.122|56=Acceptor|98=0|108=6|10=212|
8=FIX.4.4|9=61|35=0|34=51|49=Initiator|52=20200101-20:01:54.872|56=Acceptor|10=223|
8=FIX.4.4|9=61|35=0|34=55|49=Acceptor|52=20200101-20:01:55.879|56=Initiator|10=235|
8=FIX.4.4|9=61|35=0|34=52|49=Initiator|52=20200101-20:02:00.873|56=Acceptor|10=217|
8=FIX.4.4|9=61|35=0|34=56|49=Acceptor|52=20200101-20:02:01.880|56=Initiator|10=220|
8=FIX.4.4|9=61|35=0|34=53|49=Initiator|52=20200101-20:02:06.873|56=Acceptor|10=224|
8=FIX.4.4|9=61|35=0|34=57|49=Acceptor|52=20200101-20:02:07.879|56=Initiator|10=235|
8=FIX.4.4|9=61|35=0|34=54|49=Initiator|52=20200101-20:02:12.874|56=Acceptor|10=223|
8=FIX.4.4|9=61|35=0|34=58|49=Acceptor|52=20200101-20:02:13.878|56=Initiator|10=232|
8=FIX.4.4|9=72|35=A|34=28|49=Initiator|52=20200101-20:02:14.430|56=Acceptor|98=0|108=6|10=213|
8=FIX.4.4|9=61|35=0|34=55|49=Initiator|52=20200101-20:02:18.872|56=Acceptor|10=228|
8=FIX.4.4|9=61|35=0|34=59|49=Acceptor|52=20200101-20:02:19.878|56=Initiator|10=239|
8=FIX.4.4|9=72|35=A|34=30|49=Initiator|52=20200101-20:02:21.122|56=Acceptor|98=0|108=6|10=202|
8=FIX.4.4|9=61|35=0|34=56|49=Initiator|52=20200101-20:02:24.872|56=Acceptor|10=226|
8=FIX.4.4|9=61|35=0|34=60|49=Acceptor|52=20200101-20:02:25.879|56=Initiator|10=229|
8=FIX.4.4|9=61|35=0|34=57|49=Initiator|52=20200101-20:02:30.873|56=Acceptor|10=225|
8=FIX.4.4|9=61|35=0|34=61|49=Acceptor|52=20200101-20:02:31.880|56=Initiator|10=219|
8=FIX.4.4|9=61|35=0|34=58|49=Initiator|52=20200101-20:02:36.872|56=Acceptor|10=231|
8=FIX.4.4|9=61|35=0|34=62|49=Acceptor|52=20200101-20:02:37.880|56=Initiator|10=226|
8=FIX.4.4|9=61|35=0|34=59|49=Initiator|52=20200101-20:02:42.873|56=Acceptor|10=230|
8=FIX.4.4|9=61|35=0|34=63|49=Acceptor|52=20200101-20:02:43.880|56=Initiator|10=224|
8=FIX.4.4|9=72|35=A|34=29|49=Initiator|52=20200101-20:02:45.430|56=Acceptor|98=0|108=6|10=218|
8=FIX.4.4|9=61|35=0|34=60|49=Initiator|52=20200101-20:02:48.872|56=Acceptor|10=227|
8=FIX.4.4|9=61|35=0|34=64|49=Acceptor|52=20200101-20:02:49.880|56=Initiator|10=231|
8=FIX.4.4|9=72|35=A|34=31|49=Initiator|52=20200101-20:02:51.122|56=Acceptor|98=0|108=6|10=206|
8=FIX.4.4|9=61|35=0|34=61|49=Initiator|52=20200101-20:02:54.873|56=Acceptor|10=226|
8=FIX.4.4|9=61|35=0|34=65|49=Acceptor|52=20200101-20:02:55.878|56=Initiator|10=236|
8=FIX.4.4|9=61|35=0|34=62|49=Initiator|52=20200101-20:03:00.873|56=Acceptor|10=219|
8=FIX.4.4|9=61|35=0|34=66|49=Acceptor|52=20200101-20:03:01.880|56=Initiator|10=222|
8=FIX.4.4|9=61|35=0|34=63|49=Initiator|52=20200101-20:03:06.873|56=Acceptor|10=226|
8=FIX.4.4|9=61|35=0|34=67|49=Acceptor|52=20200101-20:03:07.879|56=Initiator|10=237|
8=FIX.4.4|9=61|35=0|34=64|49=Initiator|52=20200101-20:03:12.872|56=Acceptor|10=223|
8=FIX.4.4|9=61|35=0|34=68|49=Acceptor|52=20200101-20:03:13.879|56=Initiator|10=235|
8=FIX.4.4|9=72|35=A|34=30|49=Initiator|52=20200101-20:03:15.430|56=Acceptor|98=0|108=6|10=208|
8=FIX.4.4|9=61|35=0|34=65|49=Initiator|52=20200101-20:03:18.873|56=Acceptor|10=231|
8=FIX.4.4|9=61|35=0|34=69|49=Acceptor|52=20200101-20:03:19.880|56=Initiator|10=234|
8=FIX.4.4|9=72|35=A|34=32|49=Initiator|52=20200101-20:03:21.123|56=Acceptor|98=0|108=6|10=206|
8=FIX.4.4|9=61|35=0|34=66|49=Initiator|52=20200101-20:03:24.879|56=Acceptor|10=235|
8=FIX.4.4|9=61|35=0|34=70|49=Acceptor|52=20200101-20:03:25.879|56=Initiator|10=231|
8=FIX.4.4|9=61|35=0|34=67|49=Initiator|52=20200101-20:03:30.872|56=Acceptor|10=226|
8=FIX.4.4|9=61|35=0|34=71|49=Acceptor|52=20200101-20:03:31.879|56=Initiator|10=229|
8=FIX.4.4|9=61|35=0|34=68|49=Initiator|52=20200101-20:03:36.873|56=Acceptor|10=234|
8=FIX.4.4|9=61|35=0|34=72|49=Acceptor|52=20200101-20:03:37.879|56=Initiator|10=236|
8=FIX.4.4|9=61|35=0|34=69|49=Initiator|52=20200101-20:03:42.872|56=Acceptor|10=231|
8=FIX.4.4|9=61|35=0|34=73|49=Acceptor|52=20200101-20:03:43.879|56=Initiator|10=234|
8=FIX.4.4|9=61|35=0|34=70|49=Initiator|52=20200101-20:03:48.874|56=Acceptor|10=231|
8=FIX.4.4|9=61|35=0|34=74|49=Acceptor|52=20200101-20:03:49.879|56=Initiator|10=241|
8=FIX.4.4|9=72|35=A|34=33|49=Initiator|52=20200101-20:03:51.122|56=Acceptor|98=0|108=6|10=209|
8=FIX.4.4|9=61|35=0|34=71|49=Initiator|52=20200101-20:03:54.873|56=Acceptor|10=228|
8=FIX.4.4|9=61|35=0|34=75|49=Acceptor|52=20200101-20:03:55.878|56=Initiator|10=238|
8=FIX.4.4|9=61|35=0|34=72|49=Initiator|52=20200101-20:04:00.873|56=Acceptor|10=221|
8=FIX.4.4|9=61|35=0|34=76|49=Acceptor|52=20200101-20:04:01.879|56=Initiator|10=232|
8=FIX.4.4|9=61|35=0|34=73|49=Initiator|52=20200101-20:04:06.872|56=Acceptor|10=227|
8=FIX.4.4|9=61|35=0|34=77|49=Acceptor|52=20200101-20:04:07.879|56=Initiator|10=239|
8=FIX.4.4|9=61|35=0|34=74|49=Initiator|52=20200101-20:04:12.873|56=Acceptor|10=226|
8=FIX.4.4|9=61|35=0|34=78|49=Acceptor|52=20200101-20:04:13.878|56=Initiator|10=236|
8=FIX.4.4|9=61|35=0|34=75|49=Initiator|52=20200101-20:04:18.872|56=Acceptor|10=232|
8=FIX.4.4|9=61|35=0|34=79|49=Acceptor|52=20200101-20:04:19.880|56=Initiator|10=236|
8=FIX.4.4|9=61|35=0|34=76|49=Initiator|52=20200101-20:04:24.872|56=Acceptor|10=230|
8=FIX.4.4|9=61|35=0|34=80|49=Acceptor|52=20200101-20:04:25.878|56=Initiator|10=232|
8=FIX.4.4|9=61|35=0|34=77|49=Initiator|52=20200101-20:04:30.872|56=Acceptor|10=228|
8=FIX.4.4|9=61|35=0|34=81|49=Acceptor|52=20200101-20:04:31.879|56=Initiator|10=231|
8=FIX.4.4|9=61|35=0|34=78|49=Initiator|52=20200101-20:04:36.874|56=Acceptor|10=237|
8=FIX.4.4|9=61|35=0|34=82|49=Acceptor|52=20200101-20:04:37.878|56=Initiator|10=237|
8=FIX.4.4|9=61|35=0|34=79|49=Initiator|52=20200101-20:04:42.872|56=Acceptor|10=233|
8=FIX.4.4|9=61|35=0|34=83|49=Acceptor|52=20200101-20:04:43.878|56=Initiator|10=235|
8=FIX.4.4|9=61|35=0|34=80|49=Initiator|52=20200101-20:04:48.872|56=Acceptor|10=231|
8=FIX.4.4|9=61|35=0|34=84|49=Acceptor|52=20200101-20:04:49.879|56=Initiator|10=243|
8=FIX.4.4|9=61|35=0|34=81|49=Initiator|52=20200101-20:04:54.873|56=Acceptor|10=230|
8=FIX.4.4|9=61|35=0|34=85|49=Acceptor|52=20200101-20:04:55.879|56=Initiator|10=241|
8=FIX.4.4|9=61|35=0|34=82|49=Initiator|52=20200101-20:05:00.873|56=Acceptor|10=223|
8=FIX.4.4|9=61|35=0|34=86|49=Acceptor|52=20200101-20:05:01.878|56=Initiator|10=233|
8=FIX.4.4|9=61|35=0|34=83|49=Initiator|52=20200101-20:05:06.873|56=Acceptor|10=230|
8=FIX.4.4|9=61|35=0|34=87|49=Acceptor|52=20200101-20:05:07.878|56=Initiator|10=240|
8=FIX.4.4|9=61|35=0|34=84|49=Initiator|52=20200101-20:05:12.874|56=Acceptor|10=229|
8=FIX.4.4|9=61|35=0|34=88|49=Acceptor|52=20200101-20:05:13.880|56=Initiator|10=231|
8=FIX.4.4|9=61|35=0|34=85|49=Initiator|52=20200101-20:05:18.873|56=Acceptor|10=235|
8=FIX.4.4|9=61|35=0|34=89|49=Acceptor|52=20200101-20:05:19.880|56=Initiator|10=238|
8=FIX.4.4|9=61|35=0|34=86|49=Initiator|52=20200101-20:05:24.873|56=Acceptor|10=233|
8=FIX.4.4|9=61|35=0|34=90|49=Acceptor|52=20200101-20:05:25.879|56=Initiator|10=235|
8=FIX.4.4|9=61|35=0|34=87|49=Initiator|52=20200101-20:05:30.873|56=Acceptor|10=231|
8=FIX.4.4|9=61|35=0|34=91|49=Acceptor|52=20200101-20:05:31.880|56=Initiator|10=225|
8=FIX.4.4|9=61|35=0|34=88|49=Initiator|52=20200101-20:05:36.872|56=Acceptor|10=237|
8=FIX.4.4|9=61|35=0|34=92|49=Acceptor|52=20200101-20:05:37.880|56=Initiator|10=232|
8=FIX.4.4|9=61|35=0|34=89|49=Initiator|52=20200101-20:05:42.873|56=Acceptor|10=236|
8=FIX.4.4|9=61|35=0|34=93|49=Acceptor|52=20200101-20:05:43.878|56=Initiator|10=237|
8=FIX.4.4|9=61|35=0|34=90|49=Initiator|52=20200101-20:05:48.874|56=Acceptor|10=235|
8=FIX.4.4|9=61|35=0|34=94|49=Acceptor|52=20200101-20:05:49.879|56=Initiator|10=245|
8=FIX.4.4|9=61|35=0|34=91|49=Initiator|52=20200101-20:05:54.872|56=Acceptor|10=231|
8=FIX.4.4|9=61|35=0|34=95|49=Acceptor|52=20200101-20:05:55.878|56=Initiator|10=242|
8=FIX.4.4|9=61|35=0|34=92|49=Initiator|52=20200101-20:06:00.873|56=Acceptor|10=225|
8=FIX.4.4|9=61|35=0|34=96|49=Acceptor|52=20200101-20:06:01.879|56=Initiator|10=236|
8=FIX.4.4|9=61|35=0|34=93|49=Initiator|52=20200101-20:06:06.874|56=Acceptor|10=233|
8=FIX.4.4|9=61|35=0|34=97|49=Acceptor|52=20200101-20:06:07.879|56=Initiator|10=243|
8=FIX.4.4|9=61|35=0|34=94|49=Initiator|52=20200101-20:06:12.873|56=Acceptor|10=230|
8=FIX.4.4|9=61|35=0|34=98|49=Acceptor|52=20200101-20:06:13.878|56=Initiator|10=240|
8=FIX.4.4|9=61|35=0|34=95|49=Initiator|52=20200101-20:06:18.873|56=Acceptor|10=237|
8=FIX.4.4|9=61|35=0|34=99|49=Acceptor|52=20200101-20:06:19.879|56=Initiator|10=248|
8=FIX.4.4|9=61|35=0|34=96|49=Initiator|52=20200101-20:06:24.874|56=Acceptor|10=236|
8=FIX.4.4|9=62|35=0|34=100|49=Acceptor|52=20200101-20:06:25.878|56=Initiator|10=020|
8=FIX.4.4|9=61|35=0|34=97|49=Initiator|52=20200101-20:06:30.872|56=Acceptor|10=232|
8=FIX.4.4|9=62|35=0|34=101|49=Acceptor|52=20200101-20:06:31.880|56=Initiator|10=011|
8=FIX.4.4|9=61|35=0|34=98|49=Initiator|52=20200101-20:06:36.872|56=Acceptor|10=239|
8=FIX.4.4|9=62|35=0|34=102|49=Acceptor|52=20200101-20:06:37.879|56=Initiator|10=026|
8=FIX.4.4|9=61|35=0|34=99|49=Initiator|52=20200101-20:06:42.874|56=Acceptor|10=239|
8=FIX.4.4|9=62|35=0|34=103|49=Acceptor|52=20200101-20:06:43.880|56=Initiator|10=016|
8=FIX.4.4|9=62|35=0|34=100|49=Initiator|52=20200101-20:06:48.874|56=Acceptor|10=021|
8=FIX.4.4|9=62|35=0|34=104|49=Acceptor|52=20200101-20:06:49.878|56=Initiator|10=030|
8=FIX.4.4|9=62|35=0|34=101|49=Initiator|52=20200101-20:06:54.873|56=Acceptor|10=018|
8=FIX.4.4|9=62|35=0|34=105|49=Acceptor|52=20200101-20:06:55.879|56=Initiator|10=029|
8=FIX.4.4|9=62|35=0|34=102|49=Initiator|52=20200101-20:07:00.873|56=Acceptor|10=011|
8=FIX.4.4|9=62|35=0|34=106|49=Acceptor|52=20200101-20:07:01.878|56=Initiator|10=021|
8=FIX.4.4|9=62|35=0|34=103|49=Initiator|52=20200101-20:07:06.874|56=Acceptor|10=019|
8=FIX.4.4|9=62|35=0|34=107|49=Acceptor|52=20200101-20:07:07.878|56=Initiator|10=028|
8=FIX.4.4|9=62|35=0|34=104|49=Initiator|52=20200101-20:07:12.874|56=Acceptor|10=017|
8=FIX.4.4|9=62|35=0|34=108|49=Acceptor|52=20200101-20:07:13.879|56=Initiator|10=027|
8=FIX.4.4|9=62|35=0|34=105|49=Initiator|52=20200101-20:07:18.873|56=Acceptor|10=023|
8=FIX.4.4|9=62|35=0|34=109|49=Acceptor|52=20200101-20:07:19.878|56=Initiator|10=033|
8=FIX.4.4|9=62|35=0|34=106|49=Initiator|52=20200101-20:07:24.873|56=Acceptor|10=021|
8=FIX.4.4|9=62|35=0|34=110|49=Acceptor|52=20200101-20:07:25.880|56=Initiator|10=015|
